:100000000C9463000C948B000C948B000C948B006C
:100010000C948B000C948B000C948B000C948B0034
:100020000C948B000C948B000C948B000C94DB04D0
:100030000C948B000C948B000C948B000C948B0014
:100040000C9491040C948B000C9463030C943D036A
:100050000C948B000C948B000C948B000C948B00F4
:100060000C948B000C948B000000000024002700EF
:100070002A0000000000250028002B0000000000DE
:1000800023002600290004040404040404040202DA
:100090000202020203030303030301020408102007
:1000A0004080010204081020010204081020000012
:1000B0000008000201000003040700000000000027
:1000C00000002B06970A11241FBECFEFD8E0DEBF39
:1000D000CDBF11E0A0E0B1E0E6EDFAE102C005908D
:1000E0000D92A838B107D9F722E0A8E8B1E001C025
:1000F0001D92AA3EB207E1F710E0C2E6D0E004C0CC
:100100002197FE010E94A90AC136D107C9F70E94B2
:10011000BE070C945E0D0C940000CF92DF92EF921C
:10012000FF92DC01A03282E0B8070CF03EC0B7FDC0
:1001300006C0A53BB1052CF0A4EBB0E002C0A0E0E6
:10014000B0E08091D80228E830E06901C81AD108EF
:1001500087FDD394CC0CDD1CCC0CDD1C0D2C000CCD
:10016000EE08FF088091D90228E532E0281B31090A
:1001700087FD3395220F331F220F331FA901330F41
:10018000660B770B9A01AB012C193D094E095F09EB
:100190000E94EE0C24EB30E040E050E00E94C40CE2
:1001A000C20ED31EE41EF51ED6019091D7029C30DC
:1001B00098F58091D80248E850E0481B510987FD26
:1001C0005395440F551F440F551FA417B5078CF0C6
:1001D0008091D90228E532E0281B310987FD33954B
:1001E000220F331F220F331FAD012A173B070CF4D8
:1001F000A90142505109440F551F2FB7F894892F78
:1002000090E0FC01EE0FFF1F8E0F9F1FFC01EB5DC6
:10021000FD4F528341832FBFFF90EF90DF90CF902F
:10022000089596E0899FD0011124AE59BD4F909654
:100230007C936E935F9791E091969C9391979091A8
:10024000CE02E091CF02F091D002992339F030979D
:1002500051F0811108C080917E0204C0309719F0DE
:100260005C968C9109940895009769F0FC010190C7
:100270000020E9F73197AF01481B590BBC018AE414
:1002800092E00C94A40180E090E008950F931F93F6
:10029000CF93DF93C82FD62F86E0C89FF00111249B
:1002A000EE59FD4F11A2878D90A181309105F1F09B
:1002B0001CF4892B49F043C082309105A9F10397C2
:1002C000F1F560E070E034C06623C9F161E070E0F0
:1002D0008C2F0E9411010E9485046093BA027093D2
:1002E000BB028093BC029093BD0229C00E9485048A
:1002F0000091BA021091BB022091BC023091BD0264
:10030000AB01BC01401B510B620B730B8091CC0203
:100310009091CD02A0E0B0E084179507A607B7073B
:1003200018F462E070E004C0D11109C063E070E02D
:100330008C2FDF91CF911F910F910C941101DF91C0
:10034000CF911F910F910895CF92DF92EF92FF927C
:100350000F931F93CF93DF936C017A018B01C0E061
:10036000D0E0CE15DF0589F0D8016D918D01D60161
:10037000ED91FC910190F081E02DC6010995892B4A
:1003800011F47E0102C02196ECCFC701DF91CF911D
:100390001F910F91FF90EF90DF90CF900895FC0197
:1003A000918D828D981761F0828DDF01A80FB11DAC
:1003B0005D968C91928D9F5F9F73928F90E00895D0
:1003C0008FEF9FEF0895FC01918D828D981731F08A
:1003D000828DE80FF11D858D90E008958FEF9FEFDE
:1003E0000895FC01918D228D892F90E0805C9F4FB4
:1003F000821B91098F739927089588E891E00E94E4
:10040000F10121E0892B09F420E0822F0895FC01FD
:10041000848DDF01A80FB11DA35ABF4F2C91848D8D
:1004200090E001968F739927848FA689B7892C93C2
:10043000A089B1898C9180648C93938D848D98135D
:1004400006C00288F389E02D80818F7D8083089526
:10045000EF92FF920F931F93CF93DF93EC0181E014
:10046000888F9B8D8C8D981305C0E889F9898081D0
:1004700085FD24C0F62E0B8D10E00F5F1F4F0F730C
:100480001127E02E8C8DE8120CC00FB607FCFACFB6
:10049000E889F989808185FFF5CFCE010E940702A6
:1004A000F1CF8B8DFE01E80FF11DE35AFF4FF08273
:1004B0000B8FEA89FB898081806207C0EE89FF8902
:1004C0006083E889F98980818064808381E090E09D
:1004D000DF91CF911F910F91FF90EF900895CF93EF
:1004E000DF93EC01888D8823C9F0EA89FB8980813C
:1004F00085FD05C0A889B9898C9186FD0FC00FB60E
:1005000007FCF5CF808185FFF2CFA889B9898C914E
:1005100085FFEDCFCE010E940702E7CFDF91CF919B
:10052000089580E090E0892B29F00E94FD0181115F
:100530000C9400000895833081F028F4813099F004
:100540008230A1F008958730A9F08830B9F0843066
:10055000D1F4809180008F7D03C0809180008F77DF
:1005600080938000089584B58F7702C084B58F7D15
:1005700084BD08958091B0008F7703C08091B00052
:100580008F7D8093B00008953FB7F8948091E20288
:100590009091E302A091E402B091E50226B5A89BF8
:1005A00005C02F3F19F00196A11DB11D3FBFBA2F05
:1005B000A92F982F8827820F911DA11DB11DBC0165
:1005C000CD0142E0660F771F881F991F4A95D1F72A
:1005D00008950E94A60C0F931F93CF93DF93EC0115
:1005E00088819981009729F02A813B812617370756
:1005F00088F48B016F5F7F4F0E94DC0B009761F0E6
:10060000998388831B830A832C813D81232B11F4DA
:10061000FC01108281E001C080E0DF91CF911F9149
:100620000F910895EF92FF920F931F93CF93DF9353
:10063000EC017B018A01BA010E94EB022881398119
:1006400081110DC02115310519F0C9010E94440B1B
:10065000198218821D821C821B821A8206C01D8389
:100660000C83B701C9010E94BD0CCE01DF91CF916F
:100670001F910F91FF90EF9008951F920F920FB668
:100680000F9211242F933F934F935F936F937F9318
:100690008F939F93AF93BF93EF93FF9388E891E07D
:1006A0000E940702FF91EF91BF91AF919F918F91AF
:1006B0007F916F915F914F913F912F910F900FBE5E
:1006C0000F901F9018951F920F920FB60F92112442
:1006D0002F938F939F93EF93FF93E0919801F09165
:1006E00099018081E0919E01F0919F0182FD12C0ED
:1006F00090818091A1018F5F8F732091A201821759
:1007000051F0E091A101F0E0E857FE4F958F809302
:10071000A10101C08081FF91EF919F918F912F9155
:100720000F900FBE0F901F901895CF93DF93282F37
:1007300030E0F901E255FF4F8491F901E656FF4F91
:10074000D491F901EA57FF4FC491CC2391F0811164
:100750000E949B02EC2FF0E0EE0FFF1FE458FF4FCA
:10076000A591B491EC91ED2381E090E021F480E03B
:1007700002C080E090E0DF91CF910895862F0C9425
:1007800095031F93CF93DF93282F30E0F901E255B3
:10079000FF4F8491F901E656FF4FD491F901EA57D2
:1007A000FF4FC491CC23C9F0162F81110E949B02E8
:1007B000EC2FF0E0EE0FFF1FEE58FF4FA591B49124
:1007C0008FB7F894111105C09C91ED2FE095E923A6
:1007D00002C0EC91ED2BEC938FBFDF91CF911F9175
:1007E0000895CF93DF93EC0160E08E810E94C103F6
:1007F00061E08E810E94C10360E08E810E94C1038E
:100800008BE891E00197F1F7DF91CF910895862F62
:10081000642F0C94C103CF93DF9390E0FC01E65664
:10082000FF4F2491FC01EA57FF4F8491882361F127
:1008300090E0880F991FFC01E859FF4FC591D491B2
:10084000FC01EE58FF4FA591B491611109C09FB70B
:10085000F8948881209582238883EC912E230BC005
:10086000623061F49FB7F8943881822F809583239A
:100870008883EC912E2B2C939FBF06C08FB7F894E2
:10088000E8812E2B28838FBFDF91CF910895862F8B
:10089000642F0C940B048F929F92AF92BF92CF92D1
:1008A000DF92EF92FF926B017C010E94C4024B0128
:1008B0005C01C114D104E104F104F1F00E94C4020E
:1008C000DC01CB0188199909AA09BB09883E93402C
:1008D000A105B10570F321E0C21AD108E108F108C1
:1008E00088EE880E83E0981EA11CB11CC114D104AF
:1008F000E104F10419F7DDCFFF90EF90DF90CF9086
:10090000BF90AF909F908F9008952FB7F89460910B
:10091000DE027091DF028091E0029091E1022FBF30
:1009200008951F920F920FB60F9211242F933F93A9
:100930008F939F93AF93BF938091DE029091DF02DC
:10094000A091E002B091E1023091DD0223E0230F9B
:100950002D3720F40196A11DB11D05C026E8230FF7
:100960000296A11DB11D2093DD028093DE029093BB
:10097000DF02A093E002B093E1028091E202909145
:10098000E302A091E402B091E5020196A11DB11D20
:100990008093E2029093E302A093E402B093E50215
:1009A000BF91AF919F918F913F912F910F900FBE6B
:1009B0000F901F9018951F920F920FB60F9211244F
:1009C0002F933F934F935F936F937F938F939F9357
:1009D000AF93BF93EF93FF938091DC0287FF05C035
:1009E00010928500109284001BC02091DC02022E20
:1009F000000C330B8091490290E02817390784F4EA
:100A00008091DC02082E000C990BFC01EE0FFF1FF9
:100A10008E0F9F1FFC01EB5DFD4F808186FD15C091
:100A20008091DC028F5F8093DC022091DC02022E39
:100A3000000C330B8091490290E028173907C4F469
:100A40008091DC028C3064F113C08091DC02082EAE
:100A5000000C990BFC01EE0FFF1F8E0F9F1FFC0176
:100A6000EB5DFD4F808160E08F730E94C103D8CFA2
:100A70008091840090918500049680349C4918F4FC
:100A800080E49CE905C080918400909185000496E3
:100A900090938900809388008FEF8093DC023BC0A5
:100AA00020918400309185008091DC02082E000C9A
:100AB000990BFC01EE0FFF1F8E0F9F1FFC01EB5DDA
:100AC000FD4F81819281820F931F909389008093C3
:100AD00088008091DC02082E000C990BFC01EE0FBF
:100AE000FF1F8E0F9F1FFC01EB5DFD4F808186FF76
:100AF00012C08091DC02082E000C990BFC01EE0F55
:100B0000FF1F8E0F9F1FFC01EB5DFD4F808161E099
:100B10008F730E94C103FF91EF91BF91AF919F919D
:100B20008F917F916F915F914F913F912F910F9096
:100B30000FBE0F901F901895CF92DF92EF92FF9209
:100B40000F931F93CF93DF937C016C0187E0C80E56
:100B5000D11CC0E0D0E0062F10E0B8010C2E02C07E
:100B6000759567950A94E2F76170F60181916F01BE
:100B70000E94C1032196C430D10579F7C701DF91E6
:100B8000CF911F910F91FF90EF90DF90CF900C9439
:100B9000F103CF92DF92EF92FF920F931F93CF93C7
:100BA000DF93EC01F62E642F8C810E94C1038D81AE
:100BB0008F3F19F060E00E94C1038F850F2D10E078
:100BC00084FF25C06E0187E0C80ED11CE12CF12CFA
:100BD000B8010E2C02C0759567950A94E2F7617012
:100BE000F60181916F010E94C103FFEFEF1AFF0A26
:100BF00088E0E816F10461F7CE01DF91CF911F91F3
:100C00000F91FF90EF90DF90CF900C94F103B8011B
:100C100084E0759567958A95E1F7CE010E949C0561
:100C20006F2DCE01DF91CF911F910F91FF90EF902B
:100C3000DF90CF900C949C0541E00E94C90581E0B3
:100C400090E0089540E061E00E94C9058BE39FE1D8
:100C50000197F1F70895CF93DF9310928B011092D3
:100C60008A0188EE93E0A0E0B0E080938C0190933D
:100C70008D01A0938E01B0938F0186E291E0909355
:100C800089018093880185EC90E090939501809391
:100C9000940184EC90E0909397018093960180EC0E
:100CA00090E0909399018093980181EC90E090936B
:100CB0009B0180939A0182EC90E090939D01809338
:100CC0009C0186EC90E090939F0180939E0110928E
:100CD000A1011092A2011092A3011092A40180918F
:100CE00049028C30A0F491E0980F909349028093D0
:100CF000D70290E0FC01EE0FFF1F8E0F9F1FFC013B
:100D0000EB5DFD4F88EB9BE09283818303C08FEF07
:100D10008093D7021092D2021092D1021092D40284
:100D20001092D3021092D6021092D50240E050E009
:100D30006FE571E081ED92E00E941203109264026F
:100D40001092680210926702109269028EE391E09D
:100D5000909363028093620280E090E0FC01EE5980
:100D6000FD4F148E10A2178E11A206968C3391059A
:100D7000A9F784E091E09093C5028093C40280E0DB
:100D800091E09093C7028093C60284E08093C802EA
:100D90008093C90228E031E03093C3022093C2025D
:100DA0002AE030E03093CB022093CA0224EF31E0F6
:100DB0003093CD022093CC021092D0021092CF0239
:100DC0001092BE021092BF021092C0021092C10295
:100DD0001092CE0210924D0210924C0226E331E0A6
:100DE00030934B0220934A0297E090934E029FEF7C
:100DF00090934F0296E09093500295E090935102A9
:100E00008093520283E08093530282E080935402E5
:100E100010925502109256021092570210925802E8
:100E20001092590281E080935D0210925E0280E48C
:100E300080935F0280E18093600280E5809361028D
:100E400061E087E00E940B0480914F028F3F19F010
:100E500061E00E940B0461E0809150020E940B044B
:100E6000C0E0D0E08091590284FD03C084E090E0AE
:100E700002C088E090E0C817D9074CF4FE01E65B99
:100E8000FD4F61E087810E940B042196EBCF8BE33D
:100E90009DE00197F1F760E080914E020E94C1034E
:100EA00060E0809150020E94C10380914F028F3F09
:100EB00019F060E00E94C1036091590264FD20C0F6
:100EC00063E08AE492E00E949C05CBE4D6E4CE0184
:100ED0000197F1F763E08AE492E00E949C05219774
:100EE000F1F763E08AE492E00E949C0583E592E0DA
:100EF0000197F1F762E08AE492E00E949C051EC02F
:100F0000606240E08AE492E00E94C9058BE496E4C6
:100F10000197F1F760915902606240E08AE492E043
:100F20000E94C90583E592E00197F1F760915902AB
:100F3000606240E08AE492E00E94C9056091590233
:100F4000606240E08AE492E00E94C90584E08093F8
:100F50005A0240E06CE08AE492E00E94C9058AE40B
:100F600092E00E94220682E080935B0240E066E00D
:100F70008AE492E0DF91CF910C94C905CF93DF937F
:100F800000D000D000D0CDB7DEB7789484B58260B1
:100F900084BD84B5816084BD85B5826085BD85B51D
:100FA000816085BD80916E00816080936E0010929B
:100FB0008100809181008260809381008091810016
:100FC00081608093810080918000816080938000A7
:100FD0008091B10084608093B1008091B000816005
:100FE0008093B00080917A00846080937A00809131
:100FF0007A00826080937A0080917A008160809389
:101000007A0080917A00806880937A001092C10003
:101010001FE060E0812F0E940B0461E0812F0E949D
:10102000C1031F5F1331A9F760E08DE00E940B043C
:1010300060E08DE00E94C1038091D7028C3008F0FF
:1010400051C061E08CE00E940B048091D702E82F30
:10105000F0E09F01220F331FE20FF31FEB5DFD4F06
:101060009081907C9C6090831092D8021092D9025B
:101070006CE00E949D0A9CE0899FB001112440E031
:1010800050E09A01260F371FF901EE0FFF1F2E0FB8
:101090003F1FF901EB5DFD4F908196FD16C04F5F3C
:1010A0005F4F4C30510569F781110FC010928000DD
:1010B00082E0809381001092850010928400B19AA2
:1010C00080916F00826080936F00E091D702F0E022
:1010D000CF01880F991FE80FF91FEB5DFD4F80814D
:1010E00080648083E0919801F091990182E080838F
:1010F000E0919401F09195011082E0919601F091B8
:1011000097018FEC80831092A001E0919C01F091F7
:101110009D0186E08083E0919A01F0919B0180819E
:1011200080618083E0919A01F0919B0180818860C9
:101130008083E0919A01F0919B0180818068808397
:10114000E0919A01F0919B0180818F7D808384E4FE
:1011500091E00E943401412C512C3201439422240D
:101160002A94322C80E090E00E948D0081E08093F0
:10117000CE020E9485040091BE021091BF02209110
:10118000C0023091C102AB01BC01401B510B620B8C
:10119000730B8091CA029091CB02A0E0B0E084175B
:1011A0009507A607B70708F009C110E08091C802AB
:1011B000181760F4E091C402F091C502E10FF11D2F
:1011C00062E080810E940B041F5FF0CF912C809120
:1011D000C902981608F062C0E92CF12CE091C60211
:1011E000F091C702EE0DFF1D61E080810E940B04AB
:1011F000E091C602F091C702EE0DFF1D60E0808114
:101200000E94C103D301C201092C04C0880F991F99
:10121000AA1FBB1F0A94D2F75C016C01C094D09442
:10122000812C8091C802881610F5082D10E080915D
:10123000C4029091C502FC01E00FF11F80810E9461
:1012400095030C5F1F4F000F111FF801EE59FD4F62
:10125000892B29F4808191818A299B2904C080816E
:1012600091818C219D21918380838394DACFE091B9
:10127000C602F091C702EE0DFF1D61E080810E9461
:10128000C1038091C6029091C702FC01EE0DFF1DC3
:1012900060E080810E940B04939499CFEEE7F2E026
:1012A00083819481892B21F41082328221821582DC
:1012B000369682E0EA3BF80799F7E12C96E0F92EA2
:1012C0008091C802E81608F053C0D12C0E2D10E012
:1012D000000F111F06591D4F2091C902D21608F0A8
:1012E00045C0F801608171810D2C02C0769567952B
:1012F0000A94E2F761707727E29E900111242D0D88
:10130000311DE091C202F091C302E20FF31FA081F0
:10131000E2E6F2E080E0458D568D4217530711F466
:1013200061701AC08F5F36968A30A9F7672BE1F09B
:10133000EEE7F2E080E090E04081411110C0F89EBD
:10134000F001F99EF00D1124EE59FD4FA48F368F58
:10135000258F10A2178E61E00E94460105C00196FC
:1013600036968A30910541F7D394B6CFE394A8CF4F
:1013700080E090E010E0FC01EE59FD4F21A1211129
:1013800011E006968C339105B1F70E9485046093B5
:10139000BE027093BF028093C0029093C1021123DA
:1013A00069F080918302882349F0809181029091B5
:1013B0008202019719F410917E0203C01092CE02AE
:1013C00010E08DE00E9495030197D1F48AE492E049
:1013D0000E94220684EB90E00E948D008CE491E054
:1013E0000E94340168EE73E080E090E00E944B04BC
:1013F0008AE492E00E94220684E491E00E94340193
:10140000112309F491C019831A820091D502109119
:10141000D6020F5F1F4FB80181ED92E00E94EB02F0
:10142000882399F02091D1023091D2028091D50287
:101430009091D602BE016F5F7F4F820F931F0E9473
:10144000BD0C1093D6020093D5028091D5029091E5
:10145000D6029093DB028093DA028EE591E00E943F
:1014600034018091DA029091DB0205970CF45CC0A4
:101470001A8219821C821B821E821D826091D102F7
:101480007091D2026115710541F04091D5025091E1
:10149000D602CE0101960E9412038D819E81892B76
:1014A00009F160E671E089819A810E94B40C892B70
:1014B000C9F48AE492E00E94220686E691E00E9446
:1014C000340184EB90E00E948D0040E050E06FE535
:1014D00071E081ED92E00E94120368E873E180E020
:1014E00090E014C08AE492E00E94220686E791E030
:1014F0000E94340140E050E06FE571E081ED92E040
:101500000E94120360ED77E080E090E00E944B04BF
:101510008AE492E00E94220684E491E00E94340171
:1015200089819A810E94440B0E9491021BCE809176
:10153000D1029091D2020C94440B991B79E004C023
:10154000991F961708F0961B881F7A95C9F7809502
:101550000895EE0FFF1F0590F491E02D0994CF93AD
:10156000DF938230910510F482E090E0E091E80290
:10157000F091E90220E030E0C0E0D0E0309711F1D6
:101580004081518148175907C0F04817590761F445
:1015900082819381209719F09B838A832BC090933B
:1015A000E9028093E80226C02115310519F042179F
:1015B000530718F49A01BE01DF01EF010280F381A5
:1015C000E02DDCCF2115310509F1281B390B243022
:1015D000310590F412968D919C91139761157105C8
:1015E00021F0FB019383828304C09093E9028093EE
:1015F000E802FD01329644C0FD01E20FF31F819322
:101600009193225031092D933C933AC02091E602E8
:101610003091E702232B41F420911A0130911B01F4
:101620003093E7022093E6022091180130911901CE
:101630002115310541F42DB73EB740911C01509161
:101640001D01241B350BE091E602F091E702E21741
:10165000F307A0F42E1B3F0B2817390778F0AC01D5
:101660004E5F5F4F2417350748F04E0F5F1F5093B2
:10167000E7024093E6028193919302C0E0E0F0E03C
:10168000CF01DF91CF9108950F931F93CF93DF93F5
:10169000009709F48CC0FC013297138212820091EA
:1016A000E8021091E9020115110581F420813181D0
:1016B000820F931F2091E6023091E7022817390725
:1016C00079F5F093E702E093E60271C0D80140E0BB
:1016D00050E0AE17BF0750F412962D913C9113972E
:1016E000AD012115310509F1D901F3CF9D01DA01D1
:1016F0003383228360817181860F971F821793073E
:1017000069F4EC0128813981260F371F2E5F3F4F86
:10171000318320838A819B8193838283452B29F4A3
:10172000F093E902E093E80242C01396FC93EE9333
:101730001297ED01499159919E01240F351FE2172F
:10174000F30771F480819181840F951F02961196A1
:101750009C938E938281938113969C938E93129780
:10176000E0E0F0E0D80112968D919C9113970097DC
:1017700019F0F8018C01F6CF8D919C9198012E5FA4
:101780003F4F820F931F2091E6023091E702281706
:10179000390769F4309729F41092E9021092E802AF
:1017A00002C0138212821093E7020093E602DF91D7
:1017B000CF911F910F910895A0E0B0E0E2EEFBE021
:1017C0000C94FA0CEC01009721F4CB010E94AF0AB3
:1017D000B8C0FC01E60FF71F9C0122503109E21747
:1017E000F30708F4ACC0D9010D911C9111970617AD
:1017F0001707B0F00530110508F49FC0C801049721
:101800008617970708F499C002501109061B170B99
:10181000019311936D937C93CF010E94440B8DC073
:101820005B01A01AB10A4C01800E911EA091E80242
:10183000B091E90240E050E0E12CF12C109709F45E
:101840004AC0A815B905D1F56D907C901197630138
:1018500082E0C80ED11CCA14DB0480F1A3014A192E
:101860005B096A0182E0C80ED11C1296BC901297E7
:101870001396AC91B5E0CB16D10440F0B282A383AD
:1018800051834083D9016D937C930AC00E5F1F4F33
:10189000C301800F911FF90191838083EB2DFA2FF3
:1018A000E114F10431F0D7011396FC93EE931297F3
:1018B00044C0F093E902E093E8023FC08D919C910F
:1018C00011974817590708F4AC017D0112960D9045
:1018D000BC91A02DB3CF8091E6029091E7028815CC
:1018E0009905E1F446175707C8F4809118019091C3
:1018F0001901009741F48DB79EB740911C0150919A
:101900001D01841B950BE817F907C8F4F093E70253
:10191000E093E602F901718360830FC0CB010E945E
:10192000AF0A7C01009759F0A801BE010E94AB0CE0
:10193000CE010E94440BC70104C0CE0102C080E06A
:1019400090E0CDB7DEB7EEE00C94160D81E090E0AC
:10195000F8940C945E0DFB01DC0102C001900D9225
:1019600041505040D8F70895FB01DC018D91019062
:1019700080190110D9F3990B0895FB01DC01019046
:101980000D920020E1F70895052E97FB1EF40094B8
:101990000E94DB0C57FD07D00E942D0D07FC03D0E1
:1019A0004EF40C94DB0C50954095309521953F4FAB
:1019B0004F4F5F4F089590958095709561957F4F3B
:1019C0008F4F9F4F08950E944F0DA59F900DB49F7C
:1019D000900DA49F800D911D11240895B7FF0C94C4
:1019E000E30C0E94E30C821B930B08952F923F920D
:1019F0004F925F926F927F928F929F92AF92BF921F
:101A0000CF92DF92EF92FF920F931F93CF93DF93CA
:101A1000CDB7DEB7CA1BDB0B0FB6F894DEBF0FBE27
:101A2000CDBF09942A88398848885F846E847D8474
:101A30008C849B84AA84B984C884DF80EE80FD8076
:101A40000C811B81AA81B981CE0FD11D0FB6F894EC
:101A5000DEBF0FBECDBFED010895A1E21A2EAA1B75
:101A6000BB1BFD010DC0AA1FBB1FEE1FFF1FA2174E
:101A7000B307E407F50720F0A21BB30BE40BF50B4B
:101A8000661F771F881F991F1A9469F760957095D4
:101A9000809590959B01AC01BD01CF010895A29F57
:101AA000B001B39FC001A39F700D811D1124911D32
:101AB000B29F700D811D1124911D089510E0C2E6A2
:101AC000D0E004C0FE010E94A90A2196C336D107C6
:061AD000C9F7F894FFCFF6
:101AD60008090A0B0F1011123132334134353642E0
:101AE600373839432A3023440000EA0280000100D7
:101AF6000000000000002802A401F101CF01E3016B
:101B06006F02000000001C06A4010000000047044C
:101B16000704BE03436C6176652D3E002D2D2D2DE9
:101B26002D4162696572746F2D2D2D2D2D002A00B1
:101B360044313030300041636365736F20436F7208
:101B4600726563746F00436C61766520696E636FBE
:081B5600727265637461000006
:00000001FF
